:100000004AC054C163C062C061C060C05FC05EC00E
:100010005DC05CC05BC05AC059C058C057C056C014
:1000200055C054C053C099C39FC3AFC3B0C3B2C37C
:10003000B7C3CCC3E1C3F5C30CC41DC4090212008D
:10004000010100800A090400000000000000120104
:100050001001FF000008C016DC05000101020001CC
:10006000180350006F00770065007200530077009E
:1000700069007400630068001A0377007700770056
:100080002E006F0062006400650076002E006100A3
:1000900074000403090411241FBECFE5D4E0DEBFC1
:1000A000CDBF10E0A0E6B0E0E8E0F9E002C00590C6
:1000B0000D92A636B107D9F710E0A6E6B0E001C070
:1000C0001D92AE39B107E1F7E2D31DC499CF1F935A
:1000D000CF93DF939091840019160CF070C080913B
:1000E0008100C4E9D0E0C81BD109935030E010E88A
:1000F000809180008D3209F05CC08AE580936000B9
:10010000983009F056C08881807609F048C08DE7A4
:1001100090E030937D002981222321F430937E00EA
:1001200032E038C0253021F48A81809385003AC0BE
:10013000263011F510EC8B81813019F48EE490E0BB
:1001400004C0823021F48CE390E032E123C083309C
:1001500049F58A81882321F482E990E034E01AC0CD
:10016000813021F488E790E03AE114C08230D1F484
:1001700080E690E038E10EC0283019F487E890E07E
:1001800008C0293021F48A81809387000BC02A306F
:1001900049F431E0909383008093820003C0CE0144
:1001A000C8D2382F8F81882321F48E81831708F4D9
:1001B000382F109366003093610010928400809174
:1001C000600084FF43C0809161008F3F09F43EC00E
:1001D000682F893008F068E0861B809361001BE47B
:1001E0008091660080FD13EC8F5F80936600A5E729
:1001F000B0E0E0918200F0918300962F915086FF4D
:1002000007C09F3F59F084918D9331969150F9CF5B
:100210009F3F21F081918D939150FACFF09383000D
:10022000E09382007727C62F693040F485E790E09D
:1002300039D09C2F9C5FC83028F401C09EE18FEF1D
:100240008093610010937400909360009AE080B3F3
:10025000847111F49150D9F7992321F4909385007A
:1002600090937F00DF91CF911F91089585B78360B0
:1002700085BF8BB780648BBF0895A82FB92F80E00E
:1002800090E041E050EA60956F5F58F42D9138EFAF
:1002900082279795879510F0842795273F5FC8F3AD
:1002A000F3CF0895EADF8D939D930895CF93CFB751
:1002B000CF93DF93849BFECF849B0BC0849B09C0AC
:1002C000849B07C0849B05C0849B03C0849B01C0A2
:1002D00089C06F93C0918100DD27C857DF4F2F93EE
:1002E00065E5849B03C02F916F91E6CF0F931F9319
:1002F0004F9320E040E15F9300B3047104FB27F9C2
:100300003F9350E03BE039C0147140642F77012FD8
:1003100053501EC0406810B314712F7753501FC044
:10032000406400B32F770471D1F15350000023C013
:10033000406210B32F77147191F15350000025C023
:1003400004711027515012F45D5F00001150279581
:100350002C3F10B3C8F614710127015027952C3F8C
:10036000C8F64227499300B3047110274F73115008
:1003700027952C3FA8F64695469510B3147179F051
:100380000127015027952C3F98F66B5A60F33150A6
:1003900000B3B0F600C010E41ABF002717C03B50EE
:1003A0003195C31BD04010E41ABF0881033CF9F01B
:1003B0000B34E9F020917F001981110F1213EDCF5A
:1003C000093651F10D3211F0013E39F700938600E4
:1003D0003F915F914F911F910F912F916F91CAB7EC
:1003E000C6FD68CFDF91CF91CFBFCF911895009117
:1003F0008600002369F310918400112339F534300D
:100400003AF13093840000938000109181003BE02A
:10041000311B309381001CC0009184000130B4F482
:100420000AE53091600034FD14C000936000C4E719
:10043000D0E013C0052710E000C0000002BB1AC0C6
:10044000052710E0221F1DC010E021C04AE502C0B0
:1004500032ED432FC4E1D0E032E011B31461949A3D
:1004600002B311BB54E120E865E320FF052702BB7E
:10047000279517951C3FF0F66695B8F7B1F720FF62
:10048000052702BB279517951C3FD0F62795179592
:1004900017FF052700001C3F02BBB0F629913A95D3
:1004A00019F70B7E10918500110FC651D04002BB89
:1004B00011F010937F0010E41ABF006111B31B7E8E
:1004C000402F4B7E54E05A95F1F702BB11BB42BB63
:1004D0007FCF83E886B908951EBC81EC8DBD81E88D
:1004E0008CBD17BC8FEF86BD1BBC1ABC19BC18BCD9
:1004F00082EA8FBD89E18EBD089587B987B1806C8E
:1005000087B9369A86B19927AC014074507086FD40
:10051000F9CF24B135B19A0140E0369A3699FECF31
:1005200084B195B1280F391F4F5F4430B0F3C90132
:10053000969587959695879508958130910569F0F0
:10054000823091051CF4009729F0089582309105BE
:1005500039F008957BBD6ABD089579BD68BD0895E1
:1005600063BD089585BB08959C014FEF50E0813035
:10057000910559F0823091051CF4892B21F01CC0A3
:10058000029771F019C086B30CC083B3482F55276A
:1005900002C0220F331F6A95E2F7422353230CC097
:1005A00080B3482F552781E090E002C0880F991F43
:1005B0006A95E2F748235923CA010895613071050D
:1005C00021F1623071051CF4672B29F047C06230BD
:1005D000710559F143C0882359F081E090E002C0D1
:1005E000880F991F4A95E2F727B3282B27BB36C0FF
:1005F00081E090E002C0880F991F4A95E2F7982F9A
:10060000909587B3892387BB29C002C0660F771FE7
:100610004A95E2F7813019F484B3862B04C0962FF3
:10062000909584B3892384BB19C0882359F081E055
:1006300090E002C0880F991F4A95E2F721B3282B5A
:1006400021BB0CC081E090E002C0880F991F4A9541
:10065000E2F7982F909581B3892381BB80E090E0E9
:1006600008956130710521F1623071051CF4672B2A
:1006700029F047C06230710559F143C0882359F011
:1006800081E090E002C0880F991F4A95E2F728B3F5
:10069000282B28BB36C081E090E002C0880F991F4C
:1006A0004A95E2F7982F909588B3892388BB29C093
:1006B00002C0660F771F4A95E2F7882319F085B3C9
:1006C000862B04C0962F909585B3892385BB19C0CE
:1006D000882359F081E090E002C0880F991F4A9565
:1006E000E2F722B3282B22BB0CC081E090E002C0CD
:1006F000880F991F4A95E2F7982F909582B3892326
:1007000082BB80E090E008956130710561F0623055
:1007100071051CF4672B29F009C06230710529F0BE
:1007200005C088BB03C085BB01C082BB80E090E0F0
:100730000895FC0187E690E0909383008093820007
:1007400081819927AA27BB278B30910508F09BC090
:100750008D5E9F4F8F939F93089582818093670052
:1007600083818093680084C0828180936700838145
:100770008093680084818093690085819481892BAE
:1007800080936A0024E030E080C08FEF01C080E0F9
:10079000E9DE6EC082819927BC018381B5DF68C024
:1007A000228180916400822382958695869583704C
:1007B000682F772780916300822386958695482F3E
:1007C00055278091620082234CDF52C022818091A4
:1007D000640082238295869586958370682F77279B
:1007E00080916300822386958695482F55278091B6
:1007F00062008223E3DE3CC02281822F9927813070
:10080000910559F0823091051CF4892B21F01EC00E
:10081000029729F01BC086B317C083B315C080B3FD
:1008200013C022819091640092239295969596959B
:10083000937080916300282326952695422F552793
:10084000BA01892F992790DE8093670021E030E07C
:100850001CC02281809163002823822F8695869573
:100860004CDE9C01892F99278093670020936800B4
:1008700022E030E00AC02281822F99272381BC0127
:10088000822F99275ADE20E030E0C9010895CFE594
:10089000D4E0DEBFCDBFF8941FDE1BDEB89A9FEF19
:1008A00094BB8BEF81BB12BA18BA8C9A292FA0E4A3
:1008B000BFE1C0E0D0E0CD010197F1F72150D9F7B9
:1008C0008C9885E083BFD2DC789401DC08B600FE0A
:1008D000FCCF88B7816088BF80916B008150809386
:1008E0006B008F3F91F788E080936B00ECE6F0E0BF
:1008F00097E08081882311F0815080839150319658
:0809000097FFF7CFE2CFFFCF14
:060908005AFF033CC4008D
:00000001FF
