:1000000044C04DC15DC05CC05BC05AC059C058C03F
:1000100057C056C055C054C053C052C051C050C044
:100020004FC04EC04DC0A5C3ABC3BBC3BCC3BEC352
:10003000CBC3E1C3F7C315C428C439C409021200F5
:10004000010100800A090400000000000000120104
:100050001001FF000008C016DC05000101020001CC
:1000600014036100760072004200720069006400AF
:100070006700650012036B00610069002E006100DB
:100080007200610073000403090411241FBECFE550
:10009000D4E0DEBFCDBF10E0A0E6B0E0E8E5F9E0D7
:1000A00002C005900D92A636B107D9F710E0A6E67A
:1000B000B0E001C01D92AE39B107E1F70FD44BC4D7
:1000C0009FCF1F93CF93DF939091840019160CF06C
:1000D0006FC080918100C4E9D0E0C81BD109935062
:1000E00030E010E8809180008D3209F05BC08AE535
:1000F00080936000983009F055C08881807609F0BF
:1001000047C08DE790E030937D002981222321F4C0
:1001100030937E0032E037C0253021F48A8180930D
:10012000850039C0263009F510EC8B81813019F437
:100130008EE490E004C0823021F48CE390E032E160
:1001400022C0833041F58A81882321F486E890E03B
:1001500034E019C0813019F484E790E0F0CF8230A8
:10016000D1F480E690E034E10EC0283019F487E83D
:1001700090E008C0293021F48A81809387000BC069
:100180002A3049F431E0909383008093820003C0C9
:10019000CE01D7D2382F8F81882321F48E81831707
:1001A00008F4382F10936600309361001092840099
:1001B0008091600084FF43C0809161008F3F09F40B
:1001C0003EC0682F893008F068E0861B809361008C
:1001D0001BE48091660080FD13EC8F5F80936600C6
:1001E000A5E7B0E0E0918200F0918300962F915056
:1001F00086FF07C09F3F59F084918D9331969150AF
:10020000F9CF9F3F21F081918D939150FACFF093D8
:100210008300E09382007727C62F693040F485E79A
:1002200090E039D09C2F9C5FC83028F401C09EE13B
:100230008FEF8093610010937400909360009AE0B8
:1002400080B3847111F49150D9F7992321F49093DC
:10025000850090937F00DF91CF911F91089585B71E
:10026000836085BF8BB780648BBF0895A82FB92F9B
:1002700080E090E041E050EA60956F5F58F42D9186
:1002800038EF82279795879510F0842795273F5F51
:10029000C8F3F3CF0895EADF8D939D930895CF932C
:1002A000CFB7CF93DF93849BFECF849B0BC0849BFF
:1002B00009C0849B07C0849B05C0849B03C0849BAA
:1002C00001C089C06F93C0918100DD27C857DF4FFF
:1002D0002F9365E5849B03C02F916F91E6CF0F9319
:1002E0001F934F9320E040E15F9300B3047104FB40
:1002F00027F93F9350E03BE039C0147140642F77F9
:10030000012F53501EC0406810B314712F77535003
:100310001FC0406400B32F770471D1F15350000027
:1003200023C0406210B32F77147191F15350000035
:1003300025C004711027515012F45D5F0000115068
:1003400027952C3F10B3C8F614710127015027954B
:100350002C3FC8F64227499300B3047110274F730E
:10036000115027952C3FA8F64695469510B3147169
:1003700079F00127015027952C3F98F66B5A60F3CE
:10038000315000B3B0F600C010E41ABF002717C008
:100390003B503195C31BD04010E41ABF0881033C89
:1003A000F9F00B34E9F020917F001981110F12133D
:1003B000EDCF093651F10D3211F0013E39F70093BE
:1003C00086003F915F914F911F910F912F916F91F7
:1003D000CAB7C6FD68CFDF91CF91CFBFCF91189537
:1003E00000918600002369F310918400112339F5F0
:1003F00034303AF1309384000093800010918100F2
:100400003BE0311B309381001CC00091840001301F
:10041000B4F40AE53091600034FD14C0009360002C
:10042000C4E7D0E013C0052710E000C0000002BB05
:100430001AC0052710E0221F1DC010E021C04AE5A8
:1004400002C032ED432FC4E1D0E032E011B31461B9
:10045000949A02B311BB54E120E865E320FF05271D
:1004600002BB279517951C3FF0F66695B8F7B1F7D4
:1004700020FF052702BB279517951C3FD0F627952F
:10048000179517FF052700001C3F02BBB0F6299106
:100490003A9519F70B7E10918500110FC651D04087
:1004A00002BB11F010937F0010E41ABF006111B37A
:1004B0001B7E402F4B7E54E05A95F1F702BB11BBD7
:1004C00042BB7FCF83E886B908951EBC81EC8DBD09
:1004D00081E88CBD17BC8FEF86BD1BBC1ABC19BC54
:1004E00018BC82EA8FBD89E18EBD089512BC85B526
:1004F000886485BD85B580628F7E85BD81E084BDC1
:1005000013BC85B5897F816085BD089587B987B1A2
:10051000806C87B9369A86B19927AC0140745070C7
:1005200086FDF9CF24B135B19A0140E0369A36996B
:10053000FECF84B195B1280F391F4F5F4430B0F31F
:10054000C90196958795969587950895813091056F
:1005500061F0823091051CF4892B21F008950297F7
:1005600039F008957BBD6ABD089579BD68BD0895D1
:1005700063BD089585BB08959C014FEF50E0813025
:10058000910559F0823091051CF4892B21F01CC093
:10059000029771F019C086B30CC083B3482F55275A
:1005A00002C0220F331F6A95E2F7422353230CC087
:1005B00080B3482F552781E090E002C0880F991F33
:1005C0006A95E2F748235923CA01089561307105FD
:1005D00021F1623071051CF4672B29F047C06230AD
:1005E000710559F143C0882359F081E090E002C0C1
:1005F000880F991F4A95E2F727B3282B27BB36C0EF
:1006000081E090E002C0880F991F4A95E2F7982F89
:10061000909587B3892387BB29C002C0660F771FD7
:100620004A95E2F7813019F484B3862B04C0962FE3
:10063000909584B3892384BB19C0882359F081E045
:1006400090E002C0880F991F4A95E2F721B3282B4A
:1006500021BB0CC081E090E002C0880F991F4A9531
:10066000E2F7982F909581B3892381BB80E090E0D9
:1006700008956130710521F1623071051CF4672B1A
:1006800029F047C06230710559F143C0882359F001
:1006900081E090E002C0880F991F4A95E2F728B3E5
:1006A000282B28BB36C081E090E002C0880F991F3C
:1006B0004A95E2F7982F909588B3892388BB29C083
:1006C00002C0660F771F4A95E2F7882319F085B3B9
:1006D000862B04C0962F909585B3892385BB19C0BE
:1006E000882359F081E090E002C0880F991F4A9555
:1006F000E2F722B3282B22BB0CC081E090E002C0BD
:10070000880F991F4A95E2F7982F909582B3892315
:1007100082BB80E090E008956130710561F0623045
:1007200071051CF4672B29F009C06230710529F0AE
:1007300005C088BB03C085BB01C082BB80E090E0E0
:100740000895CF93DF93FC0187E690E090938300B8
:1007500080938200C0E0D0E081819927AA27BB273F
:100760008B30910508F0B5C08D5E9F4F8F939F939E
:10077000089582818093670083818093680094C08C
:100780008281809367008381809368008481809355
:10079000690085819481892B80936A0064E070E010
:1007A00099C08FEF01C080E0E5DE7EC0A28180911C
:1007B0006400A823A295A695A695A3708A2F9927D1
:1007C000BC018381A9DF70C0A281209164002A232B
:1007D0002295269526952370809163008A2386951D
:1007E0008695E091620099273327AC01B9018A2FE1
:1007F0008E233FDF59C0A281209164002A232295D5
:10080000269526952370809163008A238695869588
:10081000E091620099273327AC01B9018A2F8E231A
:10082000D5DE42C0A28180916400A823A295A6953E
:10083000A695A3702A2F33272130310561F022308D
:1008400031051CF4232B29F041C02230310529F059
:100850003DC086B303C083B301C080B380936700FB
:1008600035C0A281209164002A23229526952695E1
:10087000237080916300A823A695A6958A2F9927B7
:10088000BC01822F992778DEE9CFA2818091630095
:10089000A8238A2F8695869539DE9C01892F992772
:1008A000809367002093680062E070E013C0A2812B
:1008B00080916300A823A695A6958381C82FDD2784
:1008C000BE018A2F992742DEC093670061E070E085
:1008D00001C0BE01CB01DF91CF910895CFE5D4E0F7
:1008E000DEBFCDBFF894F1DD01DEECDDB89A9FEFFD
:1008F00094BB8BEF81BB12BA18BA8C9A292FA0E453
:10090000BFE1C0E0D0E0CD010197F1F72150D9F768
:100910008C9885E083BFA3DC7894D3DB08B600FE17
:10092000FCCF88B7816088BF80916B008150809335
:100930006B008F3F91F788E080936B00ECE6F0E06E
:1009400097E08081882311F0815080839150319607
:0809500097FFF7CFE2CFFFCFC4
:060958005AFF033CC4003D
:00000001FF
